ARM GAS  C:\Users\dmarsch\AppData\Local\Temp\ccfenmHW.s 			page 1


   1              		.syntax unified
   2              		.cpu cortex-m3
   3              		.fpu softvfp
   4              		.eabi_attribute 20, 1
   5              		.eabi_attribute 21, 1
   6              		.eabi_attribute 23, 3
   7              		.eabi_attribute 24, 1
   8              		.eabi_attribute 25, 1
   9              		.eabi_attribute 26, 1
  10              		.eabi_attribute 30, 1
  11              		.eabi_attribute 34, 1
  12              		.eabi_attribute 18, 4
  13              		.thumb
  14              		.syntax unified
  15              		.file	"Motor.c"
  16              		.text
  17              	.Ltext0:
  18              		.cfi_sections	.debug_frame
  19              		.section	.text.Motor_Write,"ax",%progbits
  20              		.align	2
  21              		.global	Motor_Write
  22              		.thumb
  23              		.thumb_func
  24              		.type	Motor_Write, %function
  25              	Motor_Write:
  26              	.LFB0:
  27              		.file 1 "Generated_Source\\PSoC5\\Motor.c"
   1:Generated_Source\PSoC5/Motor.c **** /*******************************************************************************
   2:Generated_Source\PSoC5/Motor.c **** * File Name: Motor.c  
   3:Generated_Source\PSoC5/Motor.c **** * Version 2.20
   4:Generated_Source\PSoC5/Motor.c **** *
   5:Generated_Source\PSoC5/Motor.c **** * Description:
   6:Generated_Source\PSoC5/Motor.c **** *  This file contains API to enable firmware control of a Pins component.
   7:Generated_Source\PSoC5/Motor.c **** *
   8:Generated_Source\PSoC5/Motor.c **** * Note:
   9:Generated_Source\PSoC5/Motor.c **** *
  10:Generated_Source\PSoC5/Motor.c **** ********************************************************************************
  11:Generated_Source\PSoC5/Motor.c **** * Copyright 2008-2015, Cypress Semiconductor Corporation.  All rights reserved.
  12:Generated_Source\PSoC5/Motor.c **** * You may use this file only in accordance with the license, terms, conditions, 
  13:Generated_Source\PSoC5/Motor.c **** * disclaimers, and limitations in the end user license agreement accompanying 
  14:Generated_Source\PSoC5/Motor.c **** * the software package with which this file was provided.
  15:Generated_Source\PSoC5/Motor.c **** *******************************************************************************/
  16:Generated_Source\PSoC5/Motor.c **** 
  17:Generated_Source\PSoC5/Motor.c **** #include "cytypes.h"
  18:Generated_Source\PSoC5/Motor.c **** #include "Motor.h"
  19:Generated_Source\PSoC5/Motor.c **** 
  20:Generated_Source\PSoC5/Motor.c **** /* APIs are not generated for P15[7:6] on PSoC 5 */
  21:Generated_Source\PSoC5/Motor.c **** #if !(CY_PSOC5A &&\
  22:Generated_Source\PSoC5/Motor.c **** 	 Motor__PORT == 15 && ((Motor__MASK & 0xC0) != 0))
  23:Generated_Source\PSoC5/Motor.c **** 
  24:Generated_Source\PSoC5/Motor.c **** 
  25:Generated_Source\PSoC5/Motor.c **** /*******************************************************************************
  26:Generated_Source\PSoC5/Motor.c **** * Function Name: Motor_Write
  27:Generated_Source\PSoC5/Motor.c **** ****************************************************************************//**
  28:Generated_Source\PSoC5/Motor.c **** *
  29:Generated_Source\PSoC5/Motor.c **** * \brief Writes the value to the physical port (data output register), masking
  30:Generated_Source\PSoC5/Motor.c **** *  and shifting the bits appropriately. 
ARM GAS  C:\Users\dmarsch\AppData\Local\Temp\ccfenmHW.s 			page 2


  31:Generated_Source\PSoC5/Motor.c **** *
  32:Generated_Source\PSoC5/Motor.c **** * The data output register controls the signal applied to the physical pin in 
  33:Generated_Source\PSoC5/Motor.c **** * conjunction with the drive mode parameter. This function avoids changing 
  34:Generated_Source\PSoC5/Motor.c **** * other bits in the port by using the appropriate method (read-modify-write or
  35:Generated_Source\PSoC5/Motor.c **** * bit banding).
  36:Generated_Source\PSoC5/Motor.c **** *
  37:Generated_Source\PSoC5/Motor.c **** * <b>Note</b> This function should not be used on a hardware digital output pin 
  38:Generated_Source\PSoC5/Motor.c **** * as it is driven by the hardware signal attached to it.
  39:Generated_Source\PSoC5/Motor.c **** *
  40:Generated_Source\PSoC5/Motor.c **** * \param value
  41:Generated_Source\PSoC5/Motor.c **** *  Value to write to the component instance.
  42:Generated_Source\PSoC5/Motor.c **** *
  43:Generated_Source\PSoC5/Motor.c **** * \return 
  44:Generated_Source\PSoC5/Motor.c **** *  None 
  45:Generated_Source\PSoC5/Motor.c **** *
  46:Generated_Source\PSoC5/Motor.c **** * \sideeffect
  47:Generated_Source\PSoC5/Motor.c **** *  If you use read-modify-write operations that are not atomic; the Interrupt 
  48:Generated_Source\PSoC5/Motor.c **** *  Service Routines (ISR) can cause corruption of this function. An ISR that 
  49:Generated_Source\PSoC5/Motor.c **** *  interrupts this function and performs writes to the Pins component data 
  50:Generated_Source\PSoC5/Motor.c **** *  register can cause corrupted port data. To avoid this issue, you should 
  51:Generated_Source\PSoC5/Motor.c **** *  either use the Per-Pin APIs (primary method) or disable interrupts around 
  52:Generated_Source\PSoC5/Motor.c **** *  this function.
  53:Generated_Source\PSoC5/Motor.c **** *
  54:Generated_Source\PSoC5/Motor.c **** * \funcusage
  55:Generated_Source\PSoC5/Motor.c **** *  \snippet Motor_SUT.c usage_Motor_Write
  56:Generated_Source\PSoC5/Motor.c **** *******************************************************************************/
  57:Generated_Source\PSoC5/Motor.c **** void Motor_Write(uint8 value)
  58:Generated_Source\PSoC5/Motor.c **** {
  28              		.loc 1 58 0
  29              		.cfi_startproc
  30              		@ args = 0, pretend = 0, frame = 0
  31              		@ frame_needed = 0, uses_anonymous_args = 0
  32              		@ link register save eliminated.
  33              	.LVL0:
  59:Generated_Source\PSoC5/Motor.c ****     uint8 staticBits = (Motor_DR & (uint8)(~Motor_MASK));
  34              		.loc 1 59 0
  35 0000 044A     		ldr	r2, .L2
  36 0002 1378     		ldrb	r3, [r2]	@ zero_extendqisi2
  37 0004 03F0F003 		and	r3, r3, #240
  38              	.LVL1:
  60:Generated_Source\PSoC5/Motor.c ****     Motor_DR = staticBits | ((uint8)(value << Motor_SHIFT) & Motor_MASK);
  39              		.loc 1 60 0
  40 0008 00F00F00 		and	r0, r0, #15
  41              	.LVL2:
  42 000c 1843     		orrs	r0, r0, r3
  43 000e 1070     		strb	r0, [r2]
  44 0010 7047     		bx	lr
  45              	.L3:
  46 0012 00BF     		.align	2
  47              	.L2:
  48 0014 30510040 		.word	1073762608
  49              		.cfi_endproc
  50              	.LFE0:
  51              		.size	Motor_Write, .-Motor_Write
  52              		.section	.text.Motor_SetDriveMode,"ax",%progbits
  53              		.align	2
  54              		.global	Motor_SetDriveMode
ARM GAS  C:\Users\dmarsch\AppData\Local\Temp\ccfenmHW.s 			page 3


  55              		.thumb
  56              		.thumb_func
  57              		.type	Motor_SetDriveMode, %function
  58              	Motor_SetDriveMode:
  59              	.LFB1:
  61:Generated_Source\PSoC5/Motor.c **** }
  62:Generated_Source\PSoC5/Motor.c **** 
  63:Generated_Source\PSoC5/Motor.c **** 
  64:Generated_Source\PSoC5/Motor.c **** /*******************************************************************************
  65:Generated_Source\PSoC5/Motor.c **** * Function Name: Motor_SetDriveMode
  66:Generated_Source\PSoC5/Motor.c **** ****************************************************************************//**
  67:Generated_Source\PSoC5/Motor.c **** *
  68:Generated_Source\PSoC5/Motor.c **** * \brief Sets the drive mode for each of the Pins component's pins.
  69:Generated_Source\PSoC5/Motor.c **** * 
  70:Generated_Source\PSoC5/Motor.c **** * <b>Note</b> This affects all pins in the Pins component instance. Use the
  71:Generated_Source\PSoC5/Motor.c **** * Per-Pin APIs if you wish to control individual pin's drive modes.
  72:Generated_Source\PSoC5/Motor.c **** *
  73:Generated_Source\PSoC5/Motor.c **** * \param mode
  74:Generated_Source\PSoC5/Motor.c **** *  Mode for the selected signals. Valid options are documented in 
  75:Generated_Source\PSoC5/Motor.c **** *  \ref driveMode.
  76:Generated_Source\PSoC5/Motor.c **** *
  77:Generated_Source\PSoC5/Motor.c **** * \return
  78:Generated_Source\PSoC5/Motor.c **** *  None
  79:Generated_Source\PSoC5/Motor.c **** *
  80:Generated_Source\PSoC5/Motor.c **** * \sideeffect
  81:Generated_Source\PSoC5/Motor.c **** *  If you use read-modify-write operations that are not atomic, the ISR can
  82:Generated_Source\PSoC5/Motor.c **** *  cause corruption of this function. An ISR that interrupts this function 
  83:Generated_Source\PSoC5/Motor.c **** *  and performs writes to the Pins component Drive Mode registers can cause 
  84:Generated_Source\PSoC5/Motor.c **** *  corrupted port data. To avoid this issue, you should either use the Per-Pin
  85:Generated_Source\PSoC5/Motor.c **** *  APIs (primary method) or disable interrupts around this function.
  86:Generated_Source\PSoC5/Motor.c **** *
  87:Generated_Source\PSoC5/Motor.c **** * \funcusage
  88:Generated_Source\PSoC5/Motor.c **** *  \snippet Motor_SUT.c usage_Motor_SetDriveMode
  89:Generated_Source\PSoC5/Motor.c **** *******************************************************************************/
  90:Generated_Source\PSoC5/Motor.c **** void Motor_SetDriveMode(uint8 mode)
  91:Generated_Source\PSoC5/Motor.c **** {
  60              		.loc 1 91 0
  61              		.cfi_startproc
  62              		@ args = 0, pretend = 0, frame = 0
  63              		@ frame_needed = 0, uses_anonymous_args = 0
  64              		@ link register save eliminated.
  65              	.LVL3:
  92:Generated_Source\PSoC5/Motor.c **** 	CyPins_SetPinDriveMode(Motor_0, mode);
  66              		.loc 1 92 0
  67 0000 0D4A     		ldr	r2, .L5
  68 0002 1378     		ldrb	r3, [r2]	@ zero_extendqisi2
  69 0004 00F00E00 		and	r0, r0, #14
  70              	.LVL4:
  71 0008 03F0F103 		and	r3, r3, #241
  72 000c 0343     		orrs	r3, r3, r0
  73 000e 1370     		strb	r3, [r2]
  93:Generated_Source\PSoC5/Motor.c **** 	CyPins_SetPinDriveMode(Motor_1, mode);
  74              		.loc 1 93 0
  75 0010 0132     		adds	r2, r2, #1
  76 0012 1378     		ldrb	r3, [r2]	@ zero_extendqisi2
  77 0014 03F0F103 		and	r3, r3, #241
  78 0018 0343     		orrs	r3, r3, r0
ARM GAS  C:\Users\dmarsch\AppData\Local\Temp\ccfenmHW.s 			page 4


  79 001a 1370     		strb	r3, [r2]
  94:Generated_Source\PSoC5/Motor.c **** 	CyPins_SetPinDriveMode(Motor_2, mode);
  80              		.loc 1 94 0
  81 001c 0132     		adds	r2, r2, #1
  82 001e 1378     		ldrb	r3, [r2]	@ zero_extendqisi2
  83 0020 03F0F103 		and	r3, r3, #241
  84 0024 0343     		orrs	r3, r3, r0
  85 0026 1370     		strb	r3, [r2]
  95:Generated_Source\PSoC5/Motor.c **** 	CyPins_SetPinDriveMode(Motor_3, mode);
  86              		.loc 1 95 0
  87 0028 0132     		adds	r2, r2, #1
  88 002a 1378     		ldrb	r3, [r2]	@ zero_extendqisi2
  89 002c 03F0F103 		and	r3, r3, #241
  90 0030 1843     		orrs	r0, r0, r3
  91 0032 1070     		strb	r0, [r2]
  92 0034 7047     		bx	lr
  93              	.L6:
  94 0036 00BF     		.align	2
  95              	.L5:
  96 0038 18500040 		.word	1073762328
  97              		.cfi_endproc
  98              	.LFE1:
  99              		.size	Motor_SetDriveMode, .-Motor_SetDriveMode
 100              		.section	.text.Motor_Read,"ax",%progbits
 101              		.align	2
 102              		.global	Motor_Read
 103              		.thumb
 104              		.thumb_func
 105              		.type	Motor_Read, %function
 106              	Motor_Read:
 107              	.LFB2:
  96:Generated_Source\PSoC5/Motor.c **** }
  97:Generated_Source\PSoC5/Motor.c **** 
  98:Generated_Source\PSoC5/Motor.c **** 
  99:Generated_Source\PSoC5/Motor.c **** /*******************************************************************************
 100:Generated_Source\PSoC5/Motor.c **** * Function Name: Motor_Read
 101:Generated_Source\PSoC5/Motor.c **** ****************************************************************************//**
 102:Generated_Source\PSoC5/Motor.c **** *
 103:Generated_Source\PSoC5/Motor.c **** * \brief Reads the associated physical port (pin status register) and masks 
 104:Generated_Source\PSoC5/Motor.c **** *  the required bits according to the width and bit position of the component
 105:Generated_Source\PSoC5/Motor.c **** *  instance. 
 106:Generated_Source\PSoC5/Motor.c **** *
 107:Generated_Source\PSoC5/Motor.c **** * The pin's status register returns the current logic level present on the 
 108:Generated_Source\PSoC5/Motor.c **** * physical pin.
 109:Generated_Source\PSoC5/Motor.c **** *
 110:Generated_Source\PSoC5/Motor.c **** * \return 
 111:Generated_Source\PSoC5/Motor.c **** *  The current value for the pins in the component as a right justified number.
 112:Generated_Source\PSoC5/Motor.c **** *
 113:Generated_Source\PSoC5/Motor.c **** * \funcusage
 114:Generated_Source\PSoC5/Motor.c **** *  \snippet Motor_SUT.c usage_Motor_Read  
 115:Generated_Source\PSoC5/Motor.c **** *******************************************************************************/
 116:Generated_Source\PSoC5/Motor.c **** uint8 Motor_Read(void)
 117:Generated_Source\PSoC5/Motor.c **** {
 108              		.loc 1 117 0
 109              		.cfi_startproc
 110              		@ args = 0, pretend = 0, frame = 0
 111              		@ frame_needed = 0, uses_anonymous_args = 0
ARM GAS  C:\Users\dmarsch\AppData\Local\Temp\ccfenmHW.s 			page 5


 112              		@ link register save eliminated.
 118:Generated_Source\PSoC5/Motor.c ****     return (Motor_PS & Motor_MASK) >> Motor_SHIFT;
 113              		.loc 1 118 0
 114 0000 024B     		ldr	r3, .L8
 115 0002 1878     		ldrb	r0, [r3]	@ zero_extendqisi2
 119:Generated_Source\PSoC5/Motor.c **** }
 116              		.loc 1 119 0
 117 0004 00F00F00 		and	r0, r0, #15
 118 0008 7047     		bx	lr
 119              	.L9:
 120 000a 00BF     		.align	2
 121              	.L8:
 122 000c 31510040 		.word	1073762609
 123              		.cfi_endproc
 124              	.LFE2:
 125              		.size	Motor_Read, .-Motor_Read
 126              		.section	.text.Motor_ReadDataReg,"ax",%progbits
 127              		.align	2
 128              		.global	Motor_ReadDataReg
 129              		.thumb
 130              		.thumb_func
 131              		.type	Motor_ReadDataReg, %function
 132              	Motor_ReadDataReg:
 133              	.LFB3:
 120:Generated_Source\PSoC5/Motor.c **** 
 121:Generated_Source\PSoC5/Motor.c **** 
 122:Generated_Source\PSoC5/Motor.c **** /*******************************************************************************
 123:Generated_Source\PSoC5/Motor.c **** * Function Name: Motor_ReadDataReg
 124:Generated_Source\PSoC5/Motor.c **** ****************************************************************************//**
 125:Generated_Source\PSoC5/Motor.c **** *
 126:Generated_Source\PSoC5/Motor.c **** * \brief Reads the associated physical port's data output register and masks 
 127:Generated_Source\PSoC5/Motor.c **** *  the correct bits according to the width and bit position of the component 
 128:Generated_Source\PSoC5/Motor.c **** *  instance. 
 129:Generated_Source\PSoC5/Motor.c **** *
 130:Generated_Source\PSoC5/Motor.c **** * The data output register controls the signal applied to the physical pin in 
 131:Generated_Source\PSoC5/Motor.c **** * conjunction with the drive mode parameter. This is not the same as the 
 132:Generated_Source\PSoC5/Motor.c **** * preferred Motor_Read() API because the 
 133:Generated_Source\PSoC5/Motor.c **** * Motor_ReadDataReg() reads the data register instead of the status 
 134:Generated_Source\PSoC5/Motor.c **** * register. For output pins this is a useful function to determine the value 
 135:Generated_Source\PSoC5/Motor.c **** * just written to the pin.
 136:Generated_Source\PSoC5/Motor.c **** *
 137:Generated_Source\PSoC5/Motor.c **** * \return 
 138:Generated_Source\PSoC5/Motor.c **** *  The current value of the data register masked and shifted into a right 
 139:Generated_Source\PSoC5/Motor.c **** *  justified number for the component instance.
 140:Generated_Source\PSoC5/Motor.c **** *
 141:Generated_Source\PSoC5/Motor.c **** * \funcusage
 142:Generated_Source\PSoC5/Motor.c **** *  \snippet Motor_SUT.c usage_Motor_ReadDataReg 
 143:Generated_Source\PSoC5/Motor.c **** *******************************************************************************/
 144:Generated_Source\PSoC5/Motor.c **** uint8 Motor_ReadDataReg(void)
 145:Generated_Source\PSoC5/Motor.c **** {
 134              		.loc 1 145 0
 135              		.cfi_startproc
 136              		@ args = 0, pretend = 0, frame = 0
 137              		@ frame_needed = 0, uses_anonymous_args = 0
 138              		@ link register save eliminated.
 146:Generated_Source\PSoC5/Motor.c ****     return (Motor_DR & Motor_MASK) >> Motor_SHIFT;
 139              		.loc 1 146 0
ARM GAS  C:\Users\dmarsch\AppData\Local\Temp\ccfenmHW.s 			page 6


 140 0000 024B     		ldr	r3, .L11
 141 0002 1878     		ldrb	r0, [r3]	@ zero_extendqisi2
 147:Generated_Source\PSoC5/Motor.c **** }
 142              		.loc 1 147 0
 143 0004 00F00F00 		and	r0, r0, #15
 144 0008 7047     		bx	lr
 145              	.L12:
 146 000a 00BF     		.align	2
 147              	.L11:
 148 000c 30510040 		.word	1073762608
 149              		.cfi_endproc
 150              	.LFE3:
 151              		.size	Motor_ReadDataReg, .-Motor_ReadDataReg
 152              		.text
 153              	.Letext0:
 154              		.file 2 "Generated_Source\\PSoC5\\cytypes.h"
