ARM GAS  C:\Users\dmarsch\AppData\Local\Temp\ccAw2q80.s 			page 1


   1              		.syntax unified
   2              		.cpu cortex-m3
   3              		.fpu softvfp
   4              		.eabi_attribute 20, 1
   5              		.eabi_attribute 21, 1
   6              		.eabi_attribute 23, 3
   7              		.eabi_attribute 24, 1
   8              		.eabi_attribute 25, 1
   9              		.eabi_attribute 26, 1
  10              		.eabi_attribute 30, 1
  11              		.eabi_attribute 34, 1
  12              		.eabi_attribute 18, 4
  13              		.thumb
  14              		.syntax unified
  15              		.file	"USBFS_vnd.c"
  16              		.text
  17              	.Ltext0:
  18              		.cfi_sections	.debug_frame
  19              		.section	.text.USBFS_HandleVendorRqst,"ax",%progbits
  20              		.align	2
  21              		.global	USBFS_HandleVendorRqst
  22              		.thumb
  23              		.thumb_func
  24              		.type	USBFS_HandleVendorRqst, %function
  25              	USBFS_HandleVendorRqst:
  26              	.LFB0:
  27              		.file 1 "Generated_Source\\PSoC5\\USBFS_vnd.c"
   1:Generated_Source\PSoC5/USBFS_vnd.c **** /***************************************************************************//**
   2:Generated_Source\PSoC5/USBFS_vnd.c **** * \file USBFS_vnd.c
   3:Generated_Source\PSoC5/USBFS_vnd.c **** * \version 3.20
   4:Generated_Source\PSoC5/USBFS_vnd.c **** *
   5:Generated_Source\PSoC5/USBFS_vnd.c **** * \brief
   6:Generated_Source\PSoC5/USBFS_vnd.c **** *  This file contains the  USB vendor request handler.
   7:Generated_Source\PSoC5/USBFS_vnd.c **** *
   8:Generated_Source\PSoC5/USBFS_vnd.c **** ********************************************************************************
   9:Generated_Source\PSoC5/USBFS_vnd.c **** * \copyright
  10:Generated_Source\PSoC5/USBFS_vnd.c **** * Copyright 2008-2016, Cypress Semiconductor Corporation.  All rights reserved.
  11:Generated_Source\PSoC5/USBFS_vnd.c **** * You may use this file only in accordance with the license, terms, conditions,
  12:Generated_Source\PSoC5/USBFS_vnd.c **** * disclaimers, and limitations in the end user license agreement accompanying
  13:Generated_Source\PSoC5/USBFS_vnd.c **** * the software package with which this file was provided.
  14:Generated_Source\PSoC5/USBFS_vnd.c **** *******************************************************************************/
  15:Generated_Source\PSoC5/USBFS_vnd.c **** 
  16:Generated_Source\PSoC5/USBFS_vnd.c **** #include "USBFS_pvt.h"
  17:Generated_Source\PSoC5/USBFS_vnd.c **** #include "cyapicallbacks.h"
  18:Generated_Source\PSoC5/USBFS_vnd.c **** 
  19:Generated_Source\PSoC5/USBFS_vnd.c **** #if(USBFS_EXTERN_VND == USBFS_FALSE)
  20:Generated_Source\PSoC5/USBFS_vnd.c **** 
  21:Generated_Source\PSoC5/USBFS_vnd.c **** /***************************************
  22:Generated_Source\PSoC5/USBFS_vnd.c **** * Vendor Specific Declarations
  23:Generated_Source\PSoC5/USBFS_vnd.c **** ***************************************/
  24:Generated_Source\PSoC5/USBFS_vnd.c **** 
  25:Generated_Source\PSoC5/USBFS_vnd.c **** /* `#START VENDOR_SPECIFIC_DECLARATIONS` Place your declaration here */
  26:Generated_Source\PSoC5/USBFS_vnd.c **** 
  27:Generated_Source\PSoC5/USBFS_vnd.c **** /* `#END` */
  28:Generated_Source\PSoC5/USBFS_vnd.c **** 
  29:Generated_Source\PSoC5/USBFS_vnd.c **** 
  30:Generated_Source\PSoC5/USBFS_vnd.c **** /*******************************************************************************
ARM GAS  C:\Users\dmarsch\AppData\Local\Temp\ccAw2q80.s 			page 2


  31:Generated_Source\PSoC5/USBFS_vnd.c **** * Function Name: USBFS_HandleVendorRqst
  32:Generated_Source\PSoC5/USBFS_vnd.c **** ****************************************************************************//**
  33:Generated_Source\PSoC5/USBFS_vnd.c **** *
  34:Generated_Source\PSoC5/USBFS_vnd.c **** *  This routine provide users with a method to implement vendor specific
  35:Generated_Source\PSoC5/USBFS_vnd.c **** *  requests.
  36:Generated_Source\PSoC5/USBFS_vnd.c **** *
  37:Generated_Source\PSoC5/USBFS_vnd.c **** *  To implement vendor specific requests, add your code in this function to
  38:Generated_Source\PSoC5/USBFS_vnd.c **** *  decode and disposition the request.  If the request is handled, your code
  39:Generated_Source\PSoC5/USBFS_vnd.c **** *  must set the variable "requestHandled" to TRUE, indicating that the
  40:Generated_Source\PSoC5/USBFS_vnd.c **** *  request has been handled.
  41:Generated_Source\PSoC5/USBFS_vnd.c **** *
  42:Generated_Source\PSoC5/USBFS_vnd.c **** * \return
  43:Generated_Source\PSoC5/USBFS_vnd.c **** *  requestHandled.
  44:Generated_Source\PSoC5/USBFS_vnd.c **** *
  45:Generated_Source\PSoC5/USBFS_vnd.c **** * \reentrant
  46:Generated_Source\PSoC5/USBFS_vnd.c **** *  No.
  47:Generated_Source\PSoC5/USBFS_vnd.c **** *
  48:Generated_Source\PSoC5/USBFS_vnd.c **** *******************************************************************************/
  49:Generated_Source\PSoC5/USBFS_vnd.c **** uint8 USBFS_HandleVendorRqst(void) 
  50:Generated_Source\PSoC5/USBFS_vnd.c **** {
  28              		.loc 1 50 0
  29              		.cfi_startproc
  30              		@ args = 0, pretend = 0, frame = 0
  31              		@ frame_needed = 0, uses_anonymous_args = 0
  32 0000 08B5     		push	{r3, lr}
  33              		.cfi_def_cfa_offset 8
  34              		.cfi_offset 3, -8
  35              		.cfi_offset 14, -4
  36              	.LVL0:
  51:Generated_Source\PSoC5/USBFS_vnd.c ****     uint8 requestHandled = USBFS_FALSE;
  52:Generated_Source\PSoC5/USBFS_vnd.c **** 
  53:Generated_Source\PSoC5/USBFS_vnd.c ****     /* Check request direction: D2H or H2D. */
  54:Generated_Source\PSoC5/USBFS_vnd.c ****     if (0u != (USBFS_bmRequestTypeReg & USBFS_RQST_DIR_D2H))
  37              		.loc 1 54 0
  38 0002 0B4B     		ldr	r3, .L8
  39 0004 1B78     		ldrb	r3, [r3]	@ zero_extendqisi2
  40 0006 13F0800F 		tst	r3, #128
  41 000a 0CD0     		beq	.L4
  55:Generated_Source\PSoC5/USBFS_vnd.c ****     {
  56:Generated_Source\PSoC5/USBFS_vnd.c ****         /* Handle direction from device to host. */
  57:Generated_Source\PSoC5/USBFS_vnd.c ****         
  58:Generated_Source\PSoC5/USBFS_vnd.c ****         switch (USBFS_bRequestReg)
  42              		.loc 1 58 0
  43 000c 084B     		ldr	r3, .L8
  44 000e 5B78     		ldrb	r3, [r3, #1]	@ zero_extendqisi2
  45 0010 DBB2     		uxtb	r3, r3
  46 0012 012B     		cmp	r3, #1
  47 0014 09D1     		bne	.L6
  59:Generated_Source\PSoC5/USBFS_vnd.c ****         {
  60:Generated_Source\PSoC5/USBFS_vnd.c ****             case USBFS_GET_EXTENDED_CONFIG_DESCRIPTOR:
  61:Generated_Source\PSoC5/USBFS_vnd.c ****             #if defined(USBFS_ENABLE_MSOS_STRING)
  62:Generated_Source\PSoC5/USBFS_vnd.c ****                 USBFS_currentTD.pData = (volatile uint8 *) &USBFS_MSOS_CONFIGURATION_DESCR[0u];
  48              		.loc 1 62 0
  49 0016 074B     		ldr	r3, .L8+4
  50 0018 074A     		ldr	r2, .L8+8
  51 001a 5A60     		str	r2, [r3, #4]
  63:Generated_Source\PSoC5/USBFS_vnd.c ****                 USBFS_currentTD.count = USBFS_MSOS_CONFIGURATION_DESCR[0u];
ARM GAS  C:\Users\dmarsch\AppData\Local\Temp\ccAw2q80.s 			page 3


  52              		.loc 1 63 0
  53 001c 1278     		ldrb	r2, [r2]	@ zero_extendqisi2
  54 001e 1A80     		strh	r2, [r3]	@ movhi
  64:Generated_Source\PSoC5/USBFS_vnd.c ****                 requestHandled  = USBFS_InitControlRead();
  55              		.loc 1 64 0
  56 0020 FFF7FEFF 		bl	USBFS_InitControlRead
  57              	.LVL1:
  65:Generated_Source\PSoC5/USBFS_vnd.c ****             #endif /* (USBFS_ENABLE_MSOS_STRING) */
  66:Generated_Source\PSoC5/USBFS_vnd.c ****                 break;
  58              		.loc 1 66 0
  59 0024 08BD     		pop	{r3, pc}
  60              	.LVL2:
  61              	.L4:
  51:Generated_Source\PSoC5/USBFS_vnd.c **** 
  62              		.loc 1 51 0
  63 0026 0020     		movs	r0, #0
  64 0028 08BD     		pop	{r3, pc}
  65              	.L6:
  66 002a 0020     		movs	r0, #0
  67              	.LVL3:
  67:Generated_Source\PSoC5/USBFS_vnd.c ****             
  68:Generated_Source\PSoC5/USBFS_vnd.c ****             default:
  69:Generated_Source\PSoC5/USBFS_vnd.c ****                 break;
  70:Generated_Source\PSoC5/USBFS_vnd.c ****         }
  71:Generated_Source\PSoC5/USBFS_vnd.c ****     }
  72:Generated_Source\PSoC5/USBFS_vnd.c **** 
  73:Generated_Source\PSoC5/USBFS_vnd.c ****     /* `#START VENDOR_SPECIFIC_CODE` Place your vendor specific request here */
  74:Generated_Source\PSoC5/USBFS_vnd.c **** 
  75:Generated_Source\PSoC5/USBFS_vnd.c ****     /* `#END` */
  76:Generated_Source\PSoC5/USBFS_vnd.c **** 
  77:Generated_Source\PSoC5/USBFS_vnd.c **** #ifdef USBFS_HANDLE_VENDOR_RQST_CALLBACK
  78:Generated_Source\PSoC5/USBFS_vnd.c ****     if (USBFS_FALSE == requestHandled)
  79:Generated_Source\PSoC5/USBFS_vnd.c ****     {
  80:Generated_Source\PSoC5/USBFS_vnd.c ****         requestHandled = USBFS_HandleVendorRqst_Callback();
  81:Generated_Source\PSoC5/USBFS_vnd.c ****     }
  82:Generated_Source\PSoC5/USBFS_vnd.c **** #endif /* (USBFS_HANDLE_VENDOR_RQST_CALLBACK) */
  83:Generated_Source\PSoC5/USBFS_vnd.c **** 
  84:Generated_Source\PSoC5/USBFS_vnd.c ****     return (requestHandled);
  85:Generated_Source\PSoC5/USBFS_vnd.c **** }
  68              		.loc 1 85 0
  69 002c 08BD     		pop	{r3, pc}
  70              	.L9:
  71 002e 00BF     		.align	2
  72              	.L8:
  73 0030 00600040 		.word	1073766400
  74 0034 00000000 		.word	USBFS_currentTD
  75 0038 00000000 		.word	USBFS_MSOS_CONFIGURATION_DESCR
  76              		.cfi_endproc
  77              	.LFE0:
  78              		.size	USBFS_HandleVendorRqst, .-USBFS_HandleVendorRqst
  79              		.text
  80              	.Letext0:
  81              		.file 2 "Generated_Source\\PSoC5\\cytypes.h"
  82              		.file 3 "Generated_Source\\PSoC5\\USBFS.h"
  83              		.file 4 "Generated_Source\\PSoC5\\USBFS_pvt.h"
