ARM GAS  C:\Users\dmarsch\AppData\Local\Temp\ccrn8BQz.s 			page 1


   1              		.syntax unified
   2              		.cpu cortex-m3
   3              		.fpu softvfp
   4              		.eabi_attribute 20, 1
   5              		.eabi_attribute 21, 1
   6              		.eabi_attribute 23, 3
   7              		.eabi_attribute 24, 1
   8              		.eabi_attribute 25, 1
   9              		.eabi_attribute 26, 1
  10              		.eabi_attribute 30, 1
  11              		.eabi_attribute 34, 1
  12              		.eabi_attribute 18, 4
  13              		.thumb
  14              		.syntax unified
  15              		.file	"cymetadata.c"
  16              		.text
  17              	.Ltext0:
  18              		.cfi_sections	.debug_frame
  19              		.global	cy_metadata
  20              		.global	cy_meta_flashprotect
  21              		.global	cy_meta_wonvl
  22              		.global	cy_meta_custnvl
  23              		.global	cy_meta_configecc
  24              		.section	.cyconfigecc,"a",%progbits
  25              		.align	2
  26              		.type	cy_meta_configecc, %object
  27              		.size	cy_meta_configecc, 256
  28              	cy_meta_configecc:
  29 0000 02       		.byte	2
  30 0001 52       		.byte	82
  31 0002 00       		.byte	0
  32 0003 40       		.byte	64
  33 0004 2C       		.byte	44
  34 0005 14       		.byte	20
  35 0006 01       		.byte	1
  36 0007 40       		.byte	64
  37 0008 2F       		.byte	47
  38 0009 15       		.byte	21
  39 000a 01       		.byte	1
  40 000b 40       		.byte	64
  41 000c 0B       		.byte	11
  42 000d 49       		.byte	73
  43 000e 01       		.byte	1
  44 000f 40       		.byte	64
  45 0010 02       		.byte	2
  46 0011 50       		.byte	80
  47 0012 01       		.byte	1
  48 0013 40       		.byte	64
  49 0014 18       		.byte	24
  50 0015 06       		.byte	6
  51 0016 19       		.byte	25
  52 0017 05       		.byte	5
  53 0018 1E       		.byte	30
  54 0019 01       		.byte	1
  55 001a 30       		.byte	48
  56 001b 01       		.byte	1
  57 001c 36       		.byte	54
ARM GAS  C:\Users\dmarsch\AppData\Local\Temp\ccrn8BQz.s 			page 2


  58 001d 01       		.byte	1
  59 001e 58       		.byte	88
  60 001f 04       		.byte	4
  61 0020 5F       		.byte	95
  62 0021 01       		.byte	1
  63 0022 84       		.byte	-124
  64 0023 8A       		.byte	-118
  65 0024 85       		.byte	-123
  66 0025 B0       		.byte	-80
  67 0026 86       		.byte	-122
  68 0027 45       		.byte	69
  69 0028 87       		.byte	-121
  70 0029 4C       		.byte	76
  71 002a 89       		.byte	-119
  72 002b 8C       		.byte	-116
  73 002c 8B       		.byte	-117
  74 002d 70       		.byte	112
  75 002e 8F       		.byte	-113
  76 002f FC       		.byte	-4
  77 0030 92       		.byte	-110
  78 0031 20       		.byte	32
  79 0032 98       		.byte	-104
  80 0033 8C       		.byte	-116
  81 0034 99       		.byte	-103
  82 0035 54       		.byte	84
  83 0036 9A       		.byte	-102
  84 0037 43       		.byte	67
  85 0038 9B       		.byte	-101
  86 0039 A8       		.byte	-88
  87 003a 9C       		.byte	-100
  88 003b 43       		.byte	67
  89 003c 9E       		.byte	-98
  90 003d 8C       		.byte	-116
  91 003e 9F       		.byte	-97
  92 003f 02       		.byte	2
  93 0040 A4       		.byte	-92
  94 0041 83       		.byte	-125
  95 0042 A6       		.byte	-90
  96 0043 4C       		.byte	76
  97 0044 A7       		.byte	-89
  98 0045 01       		.byte	1
  99 0046 A8       		.byte	-88
 100 0047 45       		.byte	69
 101 0048 A9       		.byte	-87
 102 0049 A8       		.byte	-88
 103 004a AA       		.byte	-86
 104 004b 8A       		.byte	-118
 105 004c AB       		.byte	-85
 106 004d 54       		.byte	84
 107 004e AC       		.byte	-84
 108 004f 10       		.byte	16
 109 0050 AD       		.byte	-83
 110 0051 4C       		.byte	76
 111 0052 AF       		.byte	-81
 112 0053 B0       		.byte	-80
 113 0054 B0       		.byte	-80
 114 0055 1F       		.byte	31
ARM GAS  C:\Users\dmarsch\AppData\Local\Temp\ccrn8BQz.s 			page 3


 115 0056 B1       		.byte	-79
 116 0057 3C       		.byte	60
 117 0058 B2       		.byte	-78
 118 0059 20       		.byte	32
 119 005a B3       		.byte	-77
 120 005b 02       		.byte	2
 121 005c B4       		.byte	-76
 122 005d D6       		.byte	-42
 123 005e B5       		.byte	-75
 124 005f 01       		.byte	1
 125 0060 B7       		.byte	-73
 126 0061 D8       		.byte	-40
 127 0062 B8       		.byte	-72
 128 0063 22       		.byte	34
 129 0064 BE       		.byte	-66
 130 0065 51       		.byte	81
 131 0066 BF       		.byte	-65
 132 0067 41       		.byte	65
 133 0068 D8       		.byte	-40
 134 0069 04       		.byte	4
 135 006a D9       		.byte	-39
 136 006b 04       		.byte	4
 137 006c DB       		.byte	-37
 138 006d 04       		.byte	4
 139 006e DF       		.byte	-33
 140 006f 01       		.byte	1
 141 0070 05       		.byte	5
 142 0071 04       		.byte	4
 143 0072 09       		.byte	9
 144 0073 40       		.byte	64
 145 0074 0D       		.byte	13
 146 0075 20       		.byte	32
 147 0076 0E       		.byte	14
 148 0077 81       		.byte	-127
 149 0078 15       		.byte	21
 150 0079 40       		.byte	64
 151 007a 17       		.byte	23
 152 007b 14       		.byte	20
 153 007c 19       		.byte	25
 154 007d 80       		.byte	-128
 155 007e 1A       		.byte	26
 156 007f 81       		.byte	-127
 157 0080 1D       		.byte	29
 158 0081 C4       		.byte	-60
 159 0082 1E       		.byte	30
 160 0083 80       		.byte	-128
 161 0084 1F       		.byte	31
 162 0085 68       		.byte	104
 163 0086 24       		.byte	36
 164 0087 04       		.byte	4
 165 0088 25       		.byte	37
 166 0089 68       		.byte	104
 167 008a 26       		.byte	38
 168 008b 14       		.byte	20
 169 008c 27       		.byte	39
 170 008d 50       		.byte	80
 171 008e 2D       		.byte	45
ARM GAS  C:\Users\dmarsch\AppData\Local\Temp\ccrn8BQz.s 			page 4


 172 008f 80       		.byte	-128
 173 0090 2F       		.byte	47
 174 0091 28       		.byte	40
 175 0092 37       		.byte	55
 176 0093 50       		.byte	80
 177 0094 3C       		.byte	60
 178 0095 04       		.byte	4
 179 0096 3E       		.byte	62
 180 0097 50       		.byte	80
 181 0098 5C       		.byte	92
 182 0099 02       		.byte	2
 183 009a 5D       		.byte	93
 184 009b 80       		.byte	-128
 185 009c 5E       		.byte	94
 186 009d 28       		.byte	40
 187 009e 64       		.byte	100
 188 009f 10       		.byte	16
 189 00a0 65       		.byte	101
 190 00a1 40       		.byte	64
 191 00a2 66       		.byte	102
 192 00a3 20       		.byte	32
 193 00a4 67       		.byte	103
 194 00a5 80       		.byte	-128
 195 00a6 6D       		.byte	109
 196 00a7 40       		.byte	64
 197 00a8 6E       		.byte	110
 198 00a9 50       		.byte	80
 199 00aa 6F       		.byte	111
 200 00ab 04       		.byte	4
 201 00ac 82       		.byte	-126
 202 00ad 40       		.byte	64
 203 00ae 86       		.byte	-122
 204 00af 20       		.byte	32
 205 00b0 87       		.byte	-121
 206 00b1 40       		.byte	64
 207 00b2 88       		.byte	-120
 208 00b3 10       		.byte	16
 209 00b4 89       		.byte	-119
 210 00b5 80       		.byte	-128
 211 00b6 8C       		.byte	-116
 212 00b7 06       		.byte	6
 213 00b8 8D       		.byte	-115
 214 00b9 0C       		.byte	12
 215 00ba C0       		.byte	-64
 216 00bb 20       		.byte	32
 217 00bc C2       		.byte	-62
 218 00bd D1       		.byte	-47
 219 00be C4       		.byte	-60
 220 00bf E0       		.byte	-32
 221 00c0 CA       		.byte	-54
 222 00c1 70       		.byte	112
 223 00c2 CC       		.byte	-52
 224 00c3 30       		.byte	48
 225 00c4 CE       		.byte	-50
 226 00c5 70       		.byte	112
 227 00c6 D6       		.byte	-42
 228 00c7 F0       		.byte	-16
ARM GAS  C:\Users\dmarsch\AppData\Local\Temp\ccrn8BQz.s 			page 5


 229 00c8 D8       		.byte	-40
 230 00c9 F0       		.byte	-16
 231 00ca E2       		.byte	-30
 232 00cb 10       		.byte	16
 233 00cc E6       		.byte	-26
 234 00cd 50       		.byte	80
 235 00ce 50       		.byte	80
 236 00cf 04       		.byte	4
 237 00d0 56       		.byte	86
 238 00d1 20       		.byte	32
 239 00d2 5B       		.byte	91
 240 00d3 40       		.byte	64
 241 00d4 5F       		.byte	95
 242 00d5 20       		.byte	32
 243 00d6 83       		.byte	-125
 244 00d7 40       		.byte	64
 245 00d8 8C       		.byte	-116
 246 00d9 04       		.byte	4
 247 00da 8E       		.byte	-114
 248 00db 20       		.byte	32
 249 00dc 8F       		.byte	-113
 250 00dd 20       		.byte	32
 251 00de D4       		.byte	-44
 252 00df E0       		.byte	-32
 253 00e0 D6       		.byte	-42
 254 00e1 20       		.byte	32
 255 00e2 E6       		.byte	-26
 256 00e3 80       		.byte	-128
 257 00e4 10       		.byte	16
 258 00e5 01       		.byte	1
 259 00e6 1A       		.byte	26
 260 00e7 01       		.byte	1
 261 00e8 00       		.byte	0
 262 00e9 4B       		.byte	75
 263 00ea 4B       		.byte	75
 264 00eb 00       		.byte	0
 265 00ec 00       		.byte	0
 266 00ed 00       		.byte	0
 267 00ee 00       		.byte	0
 268 00ef 00       		.byte	0
 269 00f0 00       		.byte	0
 270 00f1 7F       		.byte	127
 271 00f2 7F       		.byte	127
 272 00f3 00       		.byte	0
 273 00f4 00       		.byte	0
 274 00f5 00       		.byte	0
 275 00f6 00       		.byte	0
 276 00f7 00       		.byte	0
 277 00f8 00       		.byte	0
 278 00f9 0F       		.byte	15
 279 00fa 0F       		.byte	15
 280 00fb 00       		.byte	0
 281 00fc 0F       		.byte	15
 282 00fd 00       		.byte	0
 283 00fe 00       		.byte	0
 284 00ff 00       		.byte	0
 285              		.section	.cywolatch,"a",%progbits
ARM GAS  C:\Users\dmarsch\AppData\Local\Temp\ccrn8BQz.s 			page 6


 286              		.align	2
 287              		.type	cy_meta_wonvl, %object
 288              		.size	cy_meta_wonvl, 4
 289              	cy_meta_wonvl:
 290 0000 BC       		.byte	-68
 291 0001 90       		.byte	-112
 292 0002 AC       		.byte	-84
 293 0003 AF       		.byte	-81
 294              		.section	.cycustnvl,"a",%progbits
 295              		.align	2
 296              		.type	cy_meta_custnvl, %object
 297              		.size	cy_meta_custnvl, 4
 298              	cy_meta_custnvl:
 299 0000 00       		.byte	0
 300 0001 00       		.byte	0
 301 0002 40       		.byte	64
 302 0003 05       		.byte	5
 303              		.section	.cymeta,"a",%progbits
 304              		.align	2
 305              		.type	cy_metadata, %object
 306              		.size	cy_metadata, 12
 307              	cy_metadata:
 308 0000 00       		.byte	0
 309 0001 01       		.byte	1
 310 0002 2E       		.byte	46
 311 0003 16       		.byte	22
 312 0004 10       		.byte	16
 313 0005 69       		.byte	105
 314 0006 00       		.byte	0
 315 0007 01       		.byte	1
 316 0008 00       		.byte	0
 317 0009 00       		.byte	0
 318 000a 00       		.byte	0
 319 000b 00       		.byte	0
 320              		.section	.cyflashprotect,"a",%progbits
 321              		.align	2
 322              		.type	cy_meta_flashprotect, %object
 323              		.size	cy_meta_flashprotect, 256
 324              	cy_meta_flashprotect:
 325 0000 00000000 		.space	256
 325      00000000 
 325      00000000 
 325      00000000 
 325      00000000 
 326              		.text
 327              	.Letext0:
 328              		.file 1 "c:\\program files (x86)\\cypress\\psoc creator\\4.2\\psoc creator\\import\\gnu\\arm\\5.4.
 329              		.file 2 "c:\\program files (x86)\\cypress\\psoc creator\\4.2\\psoc creator\\import\\gnu\\arm\\5.4.
 330              		.file 3 "Generated_Source\\PSoC5\\cymetadata.c"
